:100000000C942A000C9447000C9447000C94470071
:100010000C9447000C9447000C9447000C94490042
:100020000C9447000C9447000C9447000C948B00F0
:100030000C9447000C9447000C9447000C94470024
:100040000C9447000C9447000C9447000C94470014
:100050000C94470011241FBECFE5D8E0DEBFCDBF12
:1000600010E0A0E6B0E0E8EBF6E002C005900D92EB
:10007000A637B107D9F720E0A6E7B0E001C01D928E
:10008000A938B207E1F70E94A2000C945A030C941D
:1000900000001F920F920FB60F9211242F933F93DF
:1000A0004F935F936F937F938F939F93AF93BF9380
:1000B000EF93FF93809177009091780022B7A0E0B2
:1000C000B0E0BA2FA92F982F8827822B80937D002C
:1000D00090937E00A0937F00B093800012BE109298
:1000E00078001092770080E090E00E94D30281E0D7
:1000F00080937600FF91EF91BF91AF919F918F9187
:100100007F916F915F914F913F912F910F900FBE13
:100110000F901F9018951F920F920FB60F921124F7
:100120008F939F93809177009091780001969093A0
:100130007800809377009F918F910F900FBE0F9062
:100140001F90189560E080E00E944D0180E690E0ED
:100150000E94B501109278001092770000E021E033
:1001600040E060E086E00E94BE021F9288248394F3
:10017000A12CC12CE12CF12C09E01DE325E040E08D
:1001800060E080E00E94D6028FB780688FBF0F903A
:10019000809176008823E1F38FB78F778FBF8091AE
:1001A0007D0090917E00A0917F00B09180008093AF
:1001B000790090937A00A0937B00B0937C008FB776
:1001C00080688FBF65E080E00E94C40186E690E011
:1001D0000E94B50165E080E00E94C4014091790071
:1001E00050917A0060917B0070917C0081E890E0F2
:1001F0000E94F601E82FF0E0EF57FF4F108281E8F0
:1002000090E00E94B50183E790E00E94B501109252
:100210007600BECFD898D998EFE5F9E03197F1F79D
:1002200000C00000DA9AEFE5F9E03197F1F700C07D
:1002300000009BB39F709BBB9BB3282F207F922B0A
:100240009BBBEFE5F9E03197F1F700C00000DA98C9
:10025000EFE5F9E03197F1F700C00000DA9AEFE539
:10026000F9E03197F1F700C000009BB39F709BBB92
:100270002BB3F0E18F9FC0011124822B8BBB8FE544
:1002800099E00197F1F700C00000DA98EFE5F9E096
:100290003197F1F700C000000895CF93DF93C82F86
:1002A000D62F8AB387608ABB8AB3806F8ABB82E00D
:1002B0000E940A0188E20E940A01DC608C2F880FEC
:1002C0008D2B0E940A0181E00E940A01DF91CF91EB
:1002D0000895DA98D898D9988BB38F708BBB08950E
:1002E000D89AD998EFE5F9E03197F1F700C000000E
:1002F000DA9AEFE5F9E03197F1F700C000009BB31F
:100300009F709BBB9BB3282F207F922B9BBBEFE55D
:10031000F9E03197F1F700C00000DA98EFE5F9E075
:100320003197F1F700C00000DA9A9BB39F709BBB36
:100330002BB3F0E18F9FC0011124822B8BBB8FE583
:1003400099E00197F1F700C00000EFE5F9E031977F
:10035000F1F700C00000DA988FE599E00197F1F716
:1003600000C000000E9469010895CF93DF93EC0163
:100370008881882331F021960E9470018991811132
:10038000FBCFDF91CF910895813039F058F0823062
:1003900031F0833031F060E005C0605C03C0605F25
:1003A00001C0605B862F80680E940A010E9469017B
:1003B0000895FB01DC013C9161E070E0022E02C077
:1003C000660F771F0A94E2F7362B3C938081609585
:1003D00068236083808150E0BA0102C0660F771FF6
:1003E0002A95E2F79B01282B208308953F924F9294
:1003F0005F926F927F928F929F92AF92BF92CF92B5
:10040000DF92EF92FF920F931F93CF93DF93EC0154
:10041000772364F48DE288837095609550954195BB
:100420005F4F6F4F7F4F3324339401C0312C411500
:1004300051056105710559F04A015B0141158AECCE
:1004400058078AE968078BE3780728F061C080E3E2
:10045000888381E081C00F2EC12CFAECDF2EFAE9EF
:10046000EF2EFBE3FF2EF02D0F2EFAE04F2E512C36
:10047000612C712CF02DC701B601A30192010E94DD
:10048000380369017A01C501B4010E943803232BA6
:10049000242B252B81F38E01030D111DC501B40101
:1004A000A70196010E943803205DF8012083339450
:1004B000762E672E582E492EF1E0CF16D104E10496
:1004C000F10409F041C020C0C701B601A5019401A3
:1004D0000E94380369017A018E01030D111D672DF9
:1004E000762D852D942D0E943803205DF801208300
:1004F0003394762E672E582E492EF1E0CF16D10474
:10050000E104F10409F702C0832D26C0832D24C025
:100510008E01030D111DCB01BA0120E03AEC4AE92E
:100520005BE30E943803205DF80120833394762E2C
:10053000672E582E492E0F2EC12CFAECDF2EFAE929
:10054000EF2EFBE3FF2EF02D0F2EFAE08F2E912CD5
:10055000A12CB12CF02DB8CFDF91CF911F910F912D
:10056000FF90EF90DF90CF90BF90AF909F908F90D3
:100570007F906F905F904F903F9008950F930CBFC6
:1005800013BE99B79C7F99BF93B7492B642B862BD9
:1005900083BF89B7822B89BF222319F08FB7806868
:1005A0008FBF0F9108959DBD8CBD08958F92AF921E
:1005B000CF92DF92EF92FF920F931F93CF93DF932F
:1005C000CDB7DEB7D62E1FBC1EBC9FB530E4839FCF
:1005D000F0011124E92BEFBD9FB530E1639FF001DD
:1005E0001124E92BEFBD9FB5342F3370932B9FBDA2
:1005F0009EB54C70440F492B4EBD1BBD0ABDF9BCC6
:10060000E8BC99B7937C99BF99B73D85330F330FF9
:10061000330FC32A880C880CC828AA0CAC28AA0C53
:10062000AA0CA92AA9BE9EB5292B2EBD882341F06C
:1006300025E040E060E370E081E390E00E94D901B2
:10064000DD2041F024E040E060E370E081E390E0F1
:100650000E94D9018FB588608FBDDF91CF911F9126
:100660000F91FF90EF90DF90CF90AF908F90089513
:10067000A1E21A2EAA1BBB1BFD010DC0AA1FBB1FA6
:10068000EE1FFF1FA217B307E407F50720F0A21B18
:10069000B30BE40BF50B661F771F881F991F1A9485
:1006A00069F760957095809590959B01AC01BD01AF
:0806B000CF010895F894FFCF7B
:1006B800465245513D002020202020202020202087
:0606C800202000485A004A
:00000001FF
